:100000000C9434000C9446000C9446000C9446006A
:100010000C9446000C9446000C9446000C94460048
:100020000C9446000C9446000C9446000C94460038
:100030000C9446000C9446000C9446000C94460028
:100040000C9446000C9446000C9446000C94460018
:100050000C9446000C94ED000C9446000C94460061
:100060000C9446000C94460011241FBECFEFD8E03C
:10007000DEBFCDBF21E0A0E0B1E001C01D92A13004
:10008000B207E1F70E9466000C94DF030C940000B5
:10009000ECE7F0E0108280818064808380818F773C
:1000A0008083808180628083EAE7F0E01082808133
:1000B000806880838081886080838081876080837E
:1000C000EEE7F0E08081816080830895F89484B148
:1000D000866084B917B810928000109281000E9447
:1000E000BF0160E081E00E949F0160E082E00E9429
:1000F0009F010E94CA018AB180628AB914BC15BCF2
:1001000084B5836284BD85E085BD0E9448007894F3
:10011000EAE7F0E0808180648083FFCF4F925F92B6
:100120006F927F92AF92BF92CF92DF92EF92FF9247
:100130000F931F93CF93DF93CDB7DEB728970FB6FA
:10014000F894DEBF0FBECDBF29013A01ED82FE82D9
:100150000F8318870E94D60169837A838B839C83DF
:10016000A6019501698D7A8D8B8D9C8D0E94D6019B
:100170009B01AC0169817A818B819C810E94720311
:1001800069837A838B839C83A3019201C801B701A1
:100190000E94D6019B01AC0169817A818B819C818F
:1001A0000E9443029B01AC01C601B5010E94D70128
:1001B00028960FB6F894DEBF0FBECDBFDF91CF916A
:1001C0001F910F91FF90EF90DF90CF90BF90AF9075
:1001D0007F906F905F904F9008951F920F920FB68F
:1001E0000F921124AF92BF92CF92DF92EF92FF92C3
:1001F0000F931F932F933F934F935F936F937F932F
:100200008F939F93AF93BF93EF93FF93EAE7F0E051
:1002100080818061808380910001811131C081E003
:1002200080930001ECE7F0E08081807F8083609123
:10023000790070E080E090E00E94E40225E42F93D2
:100240002AE72F931F921F920F2EA12CB12CFAE7B1
:10025000CF2EF4E4DF2EF02DE12CF12C0FE713E488
:1002600020E030E0A9010E948E000F900F900F90C7
:100270000F900E94B502709389006093880041C07E
:10028000813091F582E080930001ECE7F0E080811D
:10029000807F816080836091790070E080E090E0F1
:1002A0000E94E40225E42F932AE72F931F921F92C6
:1002B0000F2EA12CB12CFAE7CF2EF4E4DF2EF02D77
:1002C000E12CF12C0FE713E420E030E0A9010E94BB
:1002D0008E000F900F900F900F900E94B5027093B8
:1002E0008B0060938A000DC0823059F41092000197
:1002F000ECE7F0E08081807F8260808380917900EC
:1003000088BDEAE7F0E0808180648083FF91EF910F
:10031000BF91AF919F918F917F916F915F914F911D
:100320003F912F911F910F91FF90EF90DF90CF9011
:10033000BF90AF900F900FBE0F901F901895813017
:1003400071F4613031F4E0E8F0E08081806C80830A
:100350000895E0E8F0E0808180688083089582302D
:1003600069F4613031F4E0E8F0E0808180638083FB
:100370000895E0E8F0E08081806280830895E0E8FD
:10038000F0E0808182608083E1E8F0E08081886134
:1003900080830895E1E8F0E08081826080838FE3CC
:1003A0009CE9909387008093860008955058BB275E
:1003B000AA270E94EE010C9438030E942A0338F009
:1003C0000E94310320F039F49F3F19F426F40C9475
:1003D00027030EF4E095E7FB0C942103E92F0E941C
:1003E000490358F3BA17620773078407950720F08B
:1003F00079F4A6F50C946B030EF4E0950B2EBA2F4E
:10040000A02D0B01B90190010C01CA01A00111241A
:10041000FF27591B99F0593F50F4503E68F11A16C6
:10042000F040A22F232F342F4427585FF3CF469557
:1004300037952795A795F0405395C9F77EF41F1679
:10044000BA0B620B730B840BBAF09150A1F0FF0F43
:10045000BB1F661F771F881FC2F70EC0BA0F621F2F
:10046000731F841F48F4879577956795B795F7951F
:100470009E3F08F0B0CF9395880F08F09927EE0FB4
:100480009795879508950E9457020C9438030E940F
:10049000310358F00E942A0340F029F45F3F29F00D
:1004A0000C94210351110C946C030C9427030E94AB
:1004B000490368F39923B1F3552391F3951B550B29
:1004C000BB27AA2762177307840738F09F5F5F4F27
:1004D000220F331F441FAA1FA9F335D00E2E3AF066
:1004E000E0E832D091505040E695001CCAF72BD07E
:1004F000FE2F29D0660F771F881FBB1F26173707CF
:100500004807AB07B0E809F0BB0B802DBF01FF2700
:1005100093585F4F3AF09E3F510578F00C942103B9
:100520000C946C035F3FE4F3983ED4F38695779583
:100530006795B795F7959F5FC9F7880F911D9695B9
:10054000879597F90895E1E0660F771F881FBB1F15
:10055000621773078407BA0720F0621B730B840BC2
:10056000BA0BEE1F88F7E09508950E94510388F0BA
:100570009F5798F0B92F9927B751B0F0E1F0660F67
:10058000771F881F991F1AF0BA95C9F714C0B130A8
:1005900091F00E946B03B1E008950C946B03672FF8
:1005A000782F8827B85F39F0B93FCCF386957795D7
:1005B0006795B395D9F73EF49095809570956195C0
:1005C0007F4F8F4F9F4F0895E89409C097FB3EF4EB
:1005D00090958095709561957F4F8F4F9F4F992390
:1005E000A9F0F92F96E9BB279395F695879577950E
:1005F0006795B795F111F8CFFAF4BB0F11F460FFCE
:100600001BC06F5F7F4F8F4F9F4F16C0882311F025
:1006100096E911C0772321F09EE8872F762F05C039
:10062000662371F096E8862F70E060E02AF09A95D4
:10063000660F771F881FDAF7880F9695879597F9C9
:10064000089597F99F6780E870E060E008959FEF54
:1006500080EC089500240A94161617061806090659
:10066000089500240A941216130614060506089528
:10067000092E0394000C11F4882352F0BB0F40F4B0
:10068000BF2B11F460FF04C06F5F7F4F8F4F9F4FF0
:10069000089557FD9058440F551F59F05F3F71F072
:1006A0004795880F97FB991F61F09F3F79F08795D9
:1006B0000895121613061406551FF2CF4695F1DF62
:1006C00008C0161617061806991FF1CF86957105F2
:1006D000610508940895E894BB2766277727CB0126
:1006E00097F908950E9485030C9438030E942A0309
:1006F00038F00E94310320F0952311F00C9421036F
:100700000C94270311240C946C030E94490370F38A
:10071000959FC1F3950F50E0551F629FF001729FA6
:10072000BB27F00DB11D639FAA27F00DB11DAA1FB5
:10073000649F6627B00DA11D661F829F2227B00D02
:10074000A11D621F739FB00DA11D621F839FA00D8D
:10075000611D221F749F3327A00D611D231F849FDD
:10076000600D211D822F762F6A2F11249F57504034
:100770009AF0F1F088234AF0EE0FFF1FBB1F661FAF
:10078000771F881F91505040A9F79E3F510580F078
:100790000C9421030C946C035F3FE4F3983ED4F374
:1007A000869577956795B795F795E7959F5FC1F71C
:1007B000FE2B880F911D9695879597F90895F894CB
:0207C000FFCF69
:00000001FF
